{
  "_format": "hh-sol-artifact-1",
  "contractName": "PoetGalleryUser",
  "sourceName": "contracts/PoetGalleryUser.sol",
  "abi": [
    {
      "anonymous": false,
      "inputs": [],
      "name": "UserCreated",
      "type": "event"
    },
    {
      "inputs": [
        {
          "internalType": "address",
          "name": "user",
          "type": "address"
        },
        {
          "internalType": "address",
          "name": "room",
          "type": "address"
        }
      ],
      "name": "assignRoom",
      "outputs": [],
      "stateMutability": "nonpayable",
      "type": "function"
    },
    {
      "inputs": [
        {
          "internalType": "string",
          "name": "uri",
          "type": "string"
        },
        {
          "internalType": "enum PoetGalleryUser.Role",
          "name": "role",
          "type": "uint8"
        }
      ],
      "name": "createUser",
      "outputs": [],
      "stateMutability": "nonpayable",
      "type": "function"
    },
    {
      "inputs": [
        {
          "internalType": "address",
          "name": "",
          "type": "address"
        }
      ],
      "name": "currentRoom",
      "outputs": [
        {
          "internalType": "address",
          "name": "",
          "type": "address"
        }
      ],
      "stateMutability": "view",
      "type": "function"
    },
    {
      "inputs": [
        {
          "internalType": "address",
          "name": "member",
          "type": "address"
        }
      ],
      "name": "isUser",
      "outputs": [
        {
          "internalType": "bool",
          "name": "",
          "type": "bool"
        }
      ],
      "stateMutability": "view",
      "type": "function"
    },
    {
      "inputs": [
        {
          "internalType": "address",
          "name": "",
          "type": "address"
        }
      ],
      "name": "memberToRole",
      "outputs": [
        {
          "internalType": "enum PoetGalleryUser.Role",
          "name": "",
          "type": "uint8"
        }
      ],
      "stateMutability": "view",
      "type": "function"
    },
    {
      "inputs": [
        {
          "internalType": "address",
          "name": "",
          "type": "address"
        }
      ],
      "name": "memberToUri",
      "outputs": [
        {
          "internalType": "string",
          "name": "",
          "type": "string"
        }
      ],
      "stateMutability": "view",
      "type": "function"
    }
  ],
  "bytecode": "0x608060405234801561001057600080fd5b5061063b806100206000396000f3fe608060405234801561001057600080fd5b50600436106100625760003560e01c80630d70c4be1461006757806331b3078f1461009057806341119e96146100b05780634209fff1146100d057806346096130146100f057806358eb0b1e14610105575b600080fd5b61007a6100753660046103df565b610118565b60405161008791906104fa565b60405180910390f35b6100a361009e3660046103df565b6101b2565b60405161008791906104b3565b6100c36100be3660046103df565b6101cd565b60405161008791906104d2565b6100e36100de3660046103df565b6101e2565b60405161008791906104c7565b6101036100fe366004610432565b61022a565b005b610103610113366004610400565b610301565b60006020819052908152604090208054610131906105ca565b80601f016020809104026020016040519081016040528092919081815260200182805461015d906105ca565b80156101aa5780601f1061017f576101008083540402835291602001916101aa565b820191906000526020600020905b81548152906001019060200180831161018d57829003601f168201915b505050505081565b6002602052600090815260409020546001600160a01b031681565b60016020526000908152604090205460ff1681565b6000806001600160a01b03831660009081526001602052604090205460ff16600381111561022057634e487b7160e01b600052602160045260246000fd5b141590505b919050565b610233336101e2565b156102595760405162461bcd60e51b81526004016102509061054d565b60405180910390fd5b816102765760405162461bcd60e51b815260040161025090610584565b33600090815260208190526040902061029090848461032f565b503360009081526001602081905260409091208054839260ff19909116908360038111156102ce57634e487b7160e01b600052602160045260246000fd5b02179055506040517ffeacea920040dc5de66240ae41f4f69c53746317241d937f0152d13157f4262590600090a1505050565b6001600160a01b03918216600090815260026020526040902080546001600160a01b03191691909216179055565b82805461033b906105ca565b90600052602060002090601f01602090048101928261035d57600085556103a3565b82601f106103765782800160ff198235161785556103a3565b828001600101855582156103a3579182015b828111156103a3578235825591602001919060010190610388565b506103af9291506103b3565b5090565b5b808211156103af57600081556001016103b4565b80356001600160a01b038116811461022557600080fd5b6000602082840312156103f0578081fd5b6103f9826103c8565b9392505050565b60008060408385031215610412578081fd5b61041b836103c8565b9150610429602084016103c8565b90509250929050565b600080600060408486031215610446578081fd5b833567ffffffffffffffff8082111561045d578283fd5b818601915086601f830112610470578283fd5b81358181111561047e578384fd5b87602082850101111561048f578384fd5b60209283019550935050840135600481106104a8578182fd5b809150509250925092565b6001600160a01b0391909116815260200190565b901515815260200190565b60208101600483106104f457634e487b7160e01b600052602160045260246000fd5b91905290565b6000602080835283518082850152825b818110156105265785810183015185820160400152820161050a565b818111156105375783604083870101525b50601f01601f1916929092016040019392505050565b6020808252601a908201527f4d656d6265727368697020616c72656164792063726561746564000000000000604082015260600190565b60208082526026908201527f4d656d62657273686970206d65746164617461207572692063616e277420626560408201526520656d70747960d01b606082015260800190565b6002810460018216806105de57607f821691505b602082108114156105ff57634e487b7160e01b600052602260045260246000fd5b5091905056fea2646970667358221220f3905609e2891a0f092ded351ac3486abb4f20f7b9b32c5eb0bf1e196510feb664736f6c63430008000033",
  "linkReferences": {},
  "deployedLinkReferences": {}
}